:100000000C943B000C944D000C944D000C944D004E
:100010000C944D000C944D000C944D000C944D002C
:100020000C944D000C944D000C944D000C944D001C
:100030000C944D000C944D000C944D000C944D000C
:100040000C944D000C944D000C944D000C944D00FC
:100050000C944D000C944D000C944D000C944D00EC
:100060000C944D000C944D00F600FD0004010E01AF
:10007000180122012C0111241FBECFEFD8E0DEBFF2
:10008000CDBF21E0A0E0B1E001C01D92A130B207D8
:10009000E1F70E94AA000C9449010C940000882307
:1000A00024F49BB190689BB903C09BB19F779BB927
:1000B00086FF04C09BB190649BB903C09BB19F7B3A
:1000C0009BB985FF04C09BB190629BB903C09BB1F3
:1000D0009F7D9BB984FF04C09BB190619BB903C015
:1000E0009BB19F7E9BB983FF04C09BB198609BB975
:1000F00003C09BB1977F9BB982FF04C09BB1946002
:100100009BB903C09BB19B7F9BB981FF04C098B191
:10011000926098B903C098B19D7F98B980FF04C0E0
:1001200088B1816088B9089588B18E7F88B90895B3
:100130009093C5008093C40088E18093C10086E05D
:100140008093C20008958091C0008823E4F78091D5
:10015000C6000895F8948FEF8AB987B984B18C628C
:1001600084B984B18F7E84B920E040E060E086E508
:100170000E94DE0085B1846085B980E190E00E9434
:10018000980078940E94A300809300010E944F0081
:1001900085B18B7F85B9809100018EBD0DB407FEBE
:1001A000FDCF85B1846085B92FEF84E39CE02150B9
:1001B00080409040E1F700C00000E4CFE82F84FFCA
:1001C00052C084B18C6284B984B18F7E84B98CB5FD
:1001D00080618CBDE7708E2F90E08730910508F02C
:1001E0004BC0FC01EC5CFF4F0C9443018CB58C7F41
:1001F0008CBD8DB581608DBD3FC08CB58C7F8CBDB5
:100200008DB58E7F8DBD38C08CB581608CBD8CB5B1
:100210008D7F8CBD8DB581608DBD2EC08CB581600C
:100220008CBD8CB58D7F8CBD8DB58E7F8DBD24C072
:100230008CB58E7F8CBD8CB582608CBD8DB5816098
:100240008DBD1AC08CB58E7F8CBD8CB582608CBD87
:100250008DB58E7F8DBD10C08CB583608CBD8DB586
:100260008E7F8DBD09C084B1806184B984B1837DE6
:1002700084B98CB58F7E8CBD8CB5462B242B282B56
:1002800020642CBD0895EE0FFF1F0590F491E02D22
:060290000994F894FFCF71
:00000001FF
