S011000050726F746F7469706F2E7372656343
S11300000C9434000C9446000C9446000C94460066
S11300100C9446000C9446000C9446000C94460044
S11300200C9446000C9446000C9446000C94460034
S11300300C9446000C9446000C9446000C94460024
S11300400C9446000C9446000C9446000C94460014
S11300500C9446000C9452000C9446000C944600F8
S11300600C940C010C94460011241FBECFEFD8E071
S1130070DEBFCDBF21E0A0E0B1E001C01D92A630FB
S1130080B207E1F70E94E1000C9453010C940000C4
S113009097B19F7C97B9880F8093BA0085EC8093C1
S11300A0BC0008951F920F920FB60F9211248F93E4
S11300B0EF93FF938091000181110EC0809179002C
S11300C080930301ECE7F0E08081807F816080838E
S11300D081E0809300010BC080917900809302013C
S11300E0ECE7F0E08081807F808310920001EAE7F2
S11300F0F0E0808180648083FF91EF918F910F9075
S11301000FBE0F901F9018959FEF9AB9882324F47F
S11301109BB190689BB903C09BB19F779BB986FF45
S113012004C09BB190649BB903C09BB19F7B9BB9F6
S113013085FF04C09BB190629BB903C09BB19F7DB6
S11301409BB984FF04C09BB190619BB903C09BB170
S11301509F7E9BB983FF04C09BB198609BB903C089
S11301609BB1977F9BB982FF04C09BB194609BB9FC
S113017003C09BB19B7F9BB981FF04C09BB192607C
S11301809BB903C09BB19D7F9BB980FF04C08BB119
S113019081608BB908958BB18E7F8BB90895ECE79C
S11301A0F0E09081907F8F70892B8083089580E6A2
S11301B080937C0080E00E94CF008FE880937A00D7
S11301C00895F8948FEF8AB984B1806284B985B1B7
S11301D08F7D85B90E94D70080E30E9448007894FF
S11301E080910101823529F483B1806283B9109230
S11301F00101EAE7F0E0808180648083809103015B
S11302000E9484002FEF81EE94E0215080409040C2
S1130210E1F700C00000E4CF1F920F920FB60F92D7
S113022011248F938091B900887F803A79F158F432
S11302308037A1F018F4803689F02CC0803891F012
S1130240803981F027C0883BA9F018F4883A91F0EE
S113025021C0803CB9F0883CA9F01CC085EC809397
S1130260BC001BC08091BB008093010185EC80938E
S1130270BC0013C0809103018093BB0085EC809384
S1130280BC000BC085EC8093BC0007C085EC809358
S1130290BC0003C085EC8093BC008F910F900FBE0F
S10D02A00F901F901895F894FFCFFB
S9030000FC
