S011000050726F746F7469706F2E7372656343
S11300000C9434000C9446000C9446000C94460066
S11300100C9446000C9446000C9446000C94460044
S11300200C9446000C9446000C9446000C94460034
S11300300C9446000C9446000C9446000C94460024
S11300400C9446000C9446000C9446000C94460014
S11300500C9446000C9446000C9446000C94460004
S11300600C9446000C94460011241FBECFEFD8E038
S1130070DEBFCDBF21E0A0E0B1E001C01D92A13000
S1130080B207E1F70E9449010C94B4010C940000FA
S11300900F931F93CF938B019C01C42F87B18F7C47
S11300A087B9443079F018F4413031F023C040313D
S11300B091F04034C9F01EC0E9EBF0E080818C7F00
S11300C080831EC0E9EBF0E080818D7F8083808196
S11300D08160808315C0E9EBF0E080818E7F8083AE
S11300E08081826080830CC0E9EBF0E080818360D2
S11300F0808306C0E9EBF0E080818C7F8083C1E0DF
S113010060E074E284EF90E0A90198010E949201FA
S1130110CA01B90160517109810991094C2F50E05C
S11301209A01220F331F032E000C440B550B0E941F
S113013092012093B800ECEBF0E08081846080832E
S1130140CF911F910F91089584EA8093BC00809110
S1130150BC008823E4F79091B900987F81E098303F
S113016009F080E0089584EA8093BC008091BC008B
S11301708823E4F79091B900987F81E0903109F0E9
S113018080E0089584E98093BC008091BC0084FDE4
S1130190FCCF08958093BB0084E88093BC008091D9
S11301A0BC008823E4F78091B900887F883121F06E
S11301B0883219F481E0089581E00895FC016623F2
S11301C021F084EC8093BC0003C084E88093BC00DD
S11301D09091BC009923E4F79091B900987F66232D
S11301E011F0903549F4611102C0983539F48091C9
S11301F0BB00808381E0089580E0089580E0089545
S1130200882324F49BB190689BB903C09BB19F776A
S11302109BB986FF04C09BB190649BB903C09BB19A
S11302209F7B9BB985FF04C09BB190629BB903C0BF
S11302309BB19F7D9BB984FF04C09BB190619BB926
S113024003C09BB19F7E9BB983FF04C09BB19860A0
S11302509BB903C09BB1977F9BB982FF04C09BB13C
S113026094609BB903C09BB19B7F9BB981FF04C081
S11302709BB192609BB903C09BB19D7F9BB980FFEA
S113028004C08BB181608BB908958BB18E7F8BB91B
S113029008958FEF8AB984B1806284B985B18F7D66
S11302A085B941E060EA76E881E090E00E94480088
S11302B085B1806285B90E94A400882391F180E60B
S11302C00E94CA00811103C00E94C200089582E501
S11302D00E94CA000E94B300811103C00E94C200A0
S11302E0089581E60E94CA00811103C00E94C200E1
S11302F0089560E080E091E00E94DE000E94C20068
S113030085B18F7D85B9809100010E9400012FEF96
S113031083ED90E3215080409040E1F700C000005D
S1130320C7CF0895A1E21A2EAA1BBB1BFD010DC065
S1130330AA1FBB1FEE1FFF1FA217B307E407F50791
S113034020F0A21BB30BE40BF50B661F771F881F6D
S1130350991F1A9469F760957095809590959B0103
S10F0360AC01BD01CF010895F894FFCF5B
S9030000FC
