S01700004C6162335F444947325F32323834382E73726563FF
S11300000C943B000C944D000C944D000C944D004A
S11300100C944D000C944D000C944D000C944D0028
S11300200C944D000C944D000C944D000C944D0018
S11300300C944D000C944D000C944D000C944D0008
S11300400C944D000C9481000C944D000C944D00C4
S11300500C944D000C944F000C944D000C944D00E6
S11300600C944D000C944D0015011C0123012D012D
S1130070370141014B0111241FBECFEFD8E0DEBF91
S1130080CDBF21E0A0E0B1E001C01D92A630B207CF
S1130090E1F70E94DB000C9468010C9400001F92AD
S11300A00F920FB60F9211248F93EF93FF938091C9
S11300B0000181110EC08091790080930301ECE767
S11300C0F0E08081807F8160808381E08093000103
S11300D00BC08091790080930201ECE7F0E080810D
S11300E0807F808310920001EAE7F0E080818064E1
S11300F08083FF91EF918F910F900FBE0F901F900F
S113010018951F920F920FB60F9211248F938EB5EC
S1130110809301018F910F900FBE0F901F9018953F
S11301209FEF9AB9882324F49BB190689BB903C0CC
S11301309BB19F779BB986FF04C09BB190649BB928
S113014003C09BB19F7B9BB985FF04C09BB19062A8
S11301509BB903C09BB19F7D9BB984FF04C09BB135
S113016090619BB903C09BB19F7E9BB983FF04C080
S11301709BB198609BB903C09BB1977F9BB982FFE9
S113018004C09BB194609BB903C09BB19B7F9BB996
S113019081FF04C09BB192609BB903C09BB19D7F5A
S11301A09BB980FF04C08BB181608BB908958BB17A
S11301B08E7F8BB90895F89484B1837D84B984B11A
S11301C0806184B98AB18FEF8AB920E040E060E0B1
S11301D080E40E94FD008CB580688CBD7894809189
S11301E001010E9490002FEF81EE94E021508040A5
S11301F09040E1F700C00000F2CFE82F84FF52C026
S113020084B18C6284B984B18F7E84B98CB58061E9
S11302108CBDE7708E2F90E08730910508F04BC0BD
S1130220FC01EC5CFF4F0C9462018CB58C7F8CBD9F
S11302308DB581608DBD3FC08CB58C7F8CBD8DB577
S11302408E7F8DBD38C08CB581608CBD8CB58D7FA3
S11302508CBD8DB581608DBD2EC08CB581608CBD8B
S11302608CB58D7F8CBD8DB58E7F8DBD24C08CB536
S11302708E7F8CBD8CB582608CBD8DB581608DBD4B
S11302801AC08CB58E7F8CBD8CB582608CBD8DB54B
S11302908E7F8DBD10C08CB583608CBD8DB58E7F77
S11302A08DBD09C084B1806184B984B1837D84B972
S11302B08CB58F7E8CBD8CB5462B242B282B2064CB
S11302C02CBD0895EE0FFF1F0590F491E02D0994C5
S10702D0F894FFCFCC
S9030000FC
