S01D00004C61626F7261746F72696F365F6E616E6F5F3232382E737265634D
S11300000C9434000C9451000C9451000C94900006
S11300100C9451000C9451000C9451000C94510018
S11300200C9451000C9451000C9451000C94510008
S11300300C9451000C9451000C9451000C945100F8
S11300400C9451000C9451000C9451000C945100E8
S11300500C9451000C9451000C9451000C945100D8
S11300600C9451000C94510011241FBECFEFD8E022
S1130070DEBFCDBF11E0A0E0B1E0E2E9F1E002C0F3
S113008005900D92A230B107D9F721E0A2E0B1E0CA
S113009001C01D92A330B207E1F70E9480000C94C6
S11300A0C7000C94000084B1807C84B985B18F634F
S11300B085B9E8E6F0E0808181608083EBE6F0E0DA
S11300C080818F6380830895E0ECF0E0808182601A
S11300D080831092C50080E18093C40088E18093FE
S11300E0C10086E08093C20008959091C00095FFFE
S11300F0FCCF8093C6000895805D0E94750008952A
S11301000E9464000E945300789480910201882325
S1130110E1F3809102010E947C0010920201F5CF6C
S11301201F920F920FB60F9211242F933F934F9368
S11301308F939F9343B190910001942780E019C05D
S1130140292F30E0082E02C0359527950A94E2F74E
S113015020FF0EC0242F30E0082E02C035952795CD
S11301600A94E2F720FD04C021E0280F2093020145
S11301708F5F863028F3409300019F918F914F91B8
S11301803F912F910F900FBE0F901F901895F894E8
S1050190FFCF9B
S1050192FF0068
S9030000FC
