S01700004C6162315F444947325F32323834382E7372656301
S11300000C9434000C9451000C9451000C94510045
S11300100C9451000C9451000C9451000C94510018
S11300200C9451000C9451000C9451000C94510008
S11300300C9451000C9451000C94D4010C94510074
S11300400C9451000C9451000C9451000C945100E8
S11300500C9451000C9451000C9451000C945100D8
S11300600C9451000C94510011241FBECFEFD8E022
S1130070DEBFCDBF11E0A0E0B1E0E6EFF3E002C0E7
S113008005900D92A031B107D9F721E0A0E1B1E0CC
S113009001C01D92A233B207E1F70E9425010C941E
S11300A0F9010C940000FC01608381E081831282D9
S11300B013821482158227B181E090E002C0880F78
S11300C0991F6A95E2F7982F9095922397B998B162
S11300D0892B88B908950F931F93FC0126B130E052
S11300E0008002C0359527950A94E2F791E0D90182
S11300F0A170BB2720FF90E08181981731F14091D6
S11301001C0150911D0160911E0170911F0102811B
S1130110138124813581401B510B620B730B4E31CB
S113012051056105710598F0918340911C0150912E
S11301301D0160911E0170911F01428353836483EA
S11301407583AB2B31F481E005C080E003C080E00F
S113015001C080E01F910F9108958AB18F678AB919
S11301608BB180788BB908958A3050F42BB1E82F85
S1130170F0E0EF5FFE4F9081822F8078892B8BB95E
S1130180089584B18F6084B984B1806184B987B1E2
S1130190816087B985B1806185B988B1816088B98A
S11301A085B1807F85B9089540911C0150911D014E
S11301B060911E0170911F018091110190911201B3
S11301C0A0911301B0911401481759076A077B07DE
S11301D0D9F180911C0190911D01A0911E01B09153
S11301E01F018093110190931201A0931301B09306
S11301F0140185B1806185B988B1816088B985B100
S1130200807F85B980911001811110C095B1E09172
S11302101601F0E0E55FFE4F8081892B85B985B139
S11302208F7E85B981E080931001089595B1E091A6
S11302301501F0E0E55FFE4F8081892B85B988B117
S11302408E7F88B9109210010895F8940E94C1001D
S11302500E94AD000E94CB0161E08CE291E00E941B
S1130260530062E086E291E00E94530063E080E282
S113027091E00E94530080E00E94B40078940E94B0
S1130280D40080911B01813021F120F0823009F4E7
S113029058C0F5CF8CE291E00E946B00882379F37B
S11302A085E0809300010E94B40080911C0190912C
S11302B01D01A0911E01B0911F018093170190931D
S11302C01801A0931901B0931A0181E080931B01D6
S11302D0D6CF80911C0190911D01A0911E01B09177
S11302E01F014091170150911801609119017091FB
S11302F01A01841B950BA60BB70B883E9340A105EE
S1130300B10508F4BCCF80911C0190911D01A0910E
S11303101E01B0911F018093170190931801A093BF
S11303201901B0931A0180910001882331F08150A2
S1130330809300010E94B400A2CF82E080931B014D
S11303409ECF86E291E00E946B00882339F0809171
S11303501601833018F48F5F8093160180E291E0D8
S11303600E946B00882339F080911501833018F4C2
S11303708F5F8093150180911601833029F080915D
S11303801501833009F07BCF1092160110921501EC
S113039010921B0174CF82E084BD93E095BD99EF68
S11303A097BD80936E0008951F920F920FB60F921F
S11303B011248F939F93AF93BF9380911C019091CD
S11303C01D01A0911E01B0911F010196A11DB11D37
S11303D080931C0190931D01A0931E01B0931F01F3
S11303E0BF91AF919F918F910F900FBE0F901F906F
S10903F01895F894FFCFFC
S11303F6053F065B4F666D7D077F6F0102040800AB
S9030000FC
