S017000050726F796563746F5F4D41535445522E737265638D
S11300000C9434000C9451000C9451000C94510045
S11300100C9451000C9451000C9451000C94510018
S11300200C9451000C9451000C9451000C94510008
S11300300C9451000C9451000C9451000C945100F8
S11300400C9451000C9451000C9451000C945100E8
S11300500C9451000C9451000C9451000C945100D8
S11300600C9451000C94510011241FBECFEFD8E022
S1130070DEBFCDBF11E0A0E0B1E0ECEEFAE002C0DB
S113008005900D92AC31B107D9F721E0ACE1B1E0B4
S113009001C01D92A932B207E1F70E948D040C94AD
S11300A074050C9400001F93CF93DF9300D000D00D
S11300B000D0CDB7DEB70E942C028CEE0E94520213
S11300C088E80E9452020E943B028DEE0E94520276
S11300D010E00FC0812F90E061E0153008F060E07F
S11300E021E030E02C0F3D1F820F931F0E94660217
S11300F01F5F163078F30E944A028A8190E0982F9D
S113010088272981822B90932101809320018C815F
S113011090E0982F88272B81822B90931F01809346
S11301201E018E8190E0982F88272D81822B909339
S11301301D0180931C0126960FB6F894DEBF0FBEF6
S1130140CDBFDF91CF911F910895CF93DF931F927D
S1130150CDB7DEB72FEF81EE94E021508040904080
S1130160E1F700C000000E942C028CEE0E945202B3
S113017083EF0E9452020E943B028DEE0E945202C3
S113018060E0CE0101960E9466020E944A028981C3
S113019080FDE9CF0E9453000E942C028CEE0E9445
S11301A0520284EF0E94520287E20E9452020E948D
S11301B04A028FE39CE90197F1F700C000000F9019
S11301C0DF91CF9108954F925F926F927F928F92B9
S11301D09F92AF92BF92CF92DF92EF92FF921F93C2
S11301E0CF93DF9300D01F92CDB7DEB70E942C02CD
S11301F08CEE0E9452028AEF0E9452020E943B023D
S11302008DEE0E94520210E00FC0812F90E061E059
S1130210123008F060E021E030E02C0F3D1F820F27
S1130220931F0E9466021F5F133078F30E944A02F4
S1130230C980D12CE12CF12CB701A601032E3CE09E
S1130240440F551F661F771F3A95D1F7302D8A81C9
S1130250C82ED12CE12CF12CCC0CDD1CEE1CFF1C87
S1130260CC0CDD1CEE1CFF1CCC0CDD1CEE1CFF1C9E
S1130270CC0CDD1CEE1CFF1CC42AD52AE62AF72A66
S11302808B8182958F70C82AB701A601689412F8F1
S113029075956795579547951694D1F74090200129
S11302A050902101612C712CD301C201880F991F38
S11302B0AA1FBB1F9A01AB01281B390B4A0B5B0B0E
S11302C0A0911E01B0911F010E9428054B015C0101
S11302D0072E7BE0B594A794979487947A95D1F7E9
S11302E0702DD701C601689413F8B595A795979515
S11302F087951694D1F7BC01CD0164197509860957
S113030097099B01AC010E94CC049B01AC01012E16
S11303101CE055954795379527951A95D1F7102DDB
S1130320A0911C01B0911D010E942805DC01CB01A4
S1130330072E7EE0B595A795979587957A95D1F781
S1130340702D880D991DAA1DBB1D6C017D01CC0C5F
S1130350DD1CEE1CFF1CCC0CDD1CEE1CFF1C8C0DEC
S11303609D1DAE1DBF1D80589F4FAF4FBF4F692FBE
S11303707A2F8B2F992787FD9A950F900F900F90C6
S1130380DF91CF911F91FF90EF90DF90CF90BF90BE
S1130390AF909F908F907F906F905F904F90089553
S11303A00F931F93CF938B019C01C42F87B18F7C34
S11303B087B9443079F018F4413031F023C040312A
S11303C091F04034C9F01EC0E9EBF0E080818C7FED
S11303D080831EC0E9EBF0E080818D7F8083808183
S11303E08160808315C0E9EBF0E080818E7F80839B
S11303F08081826080830CC0E9EBF0E080818360BF
S1130400808306C0E9EBF0E080818C7F8083C1E0CB
S113041060E074E284EF90E0A90198010E94DC049A
S1130420CA01B90160517109810991094C2F50E049
S11304309A01220F331F032E000C440B550B0E940C
S1130440DC042093B800ECEBF0E0808184608083CE
S1130450CF911F910F91089584EA8093BC008091FD
S1130460BC008823E4F79091B900987F81E098302C
S113047009F080E0089584EA8093BC008091BC0078
S11304808823E4F79091B900987F81E0903109F0D6
S113049080E0089584E98093BC008091BC0084FDD1
S11304A0FCCF08958093BB0084E88093BC008091C6
S11304B0BC008823E4F78091B900887F883121F05B
S11304C0883219F481E0089581E00895FC016623DF
S11304D021F084EC8093BC0003C084E88093BC00CA
S11304E09091BC009923E4F79091B900987F66231A
S11304F011F0903549F4611102C0983539F48091B6
S1130500BB00808381E0089580E0089580E0089531
S113051080FF04C09BB194609BB903C09BB19B7FD7
S11305209BB981FF04C09BB198609BB903C09BB188
S1130530977F9BB982FF04C09BB190619BB903C0B4
S11305409BB19F7E9BB983FF04C09BB190629BB912
S113055003C09BB19F7D9BB984FF04C09BB1906491
S11305609BB903C09BB19F7B9BB985FF04C09BB122
S113057090689BB903C09BB19F779BB986FF04C069
S113058095B1916095B903C095B19E7F95B98823C3
S113059024F485B1826085B9089585B18D7F85B9CC
S11305A0089598B19E7F98B90E94880288B18260AC
S11305B088B98FE79EE30197F1F700C0000088B186
S11305C08D7F88B9089587B1836087B98AB18C6FAC
S11305D08AB984B1836084B92FEF89EF90E0215008
S11305E080409040E1F700C0000080E30E94D10207
S11305F08FE19EE40197F1F700C0000080E30E94C0
S1130600D1028FED9BEA0197F1F700C0000080E36F
S11306100E94D1028FED9BEA0197F1F700C0000020
S113062088E30E94D1028FE19EE40197F1F700C0B4
S113063000008CE00E94D1028FE19EE40197F1F763
S113064000C0000086E00E94D1028FE19EE4019781
S1130650F1F700C0000081E00E94D102089598B132
S1130660916098B90E94880288B1826088B98FE14C
S11306709EE40197F1F700C0000088B18D7F88B92E
S113068008950F931F93CF93DF938C01C0E0D0E0C4
S113069003C00E942F032196F801EC0FFD1F8081F7
S11306A08111F7CFDF91CF911F910F910895813080
S11306B019F48FE7860F06C0823019F48FEB860F8A
S11306C001C080E80E94D1020895CF930E942C02B9
S11306D0C82F882399F180E60E945202C82F811105
S11306E003C00E944A022AC00E943B02C82F811103
S11306F003C00E944A0222C081E60E945202C82F0F
S1130700811103C00E944A0219C061E088E291E0AD
S11307100E946602C82F811103C00E944A020EC0C3
S113072060E087E291E00E946602C82F811103C055
S11307300E944A0203C00E944A02C1E08C2FCF915A
S113074008952091280130912701809125019091ED
S113075026018931910524F04E9724F481E003C0E9
S113076080E001C082E0243648F081E080932401D7
S113077092E090932201809323010895311118C0CF
S113078091E090932301811105C0109222011092EF
S113079024010895813029F48093220110922401C8
S11307A0089582E08093220181E0809324010895DA
S11307B010922301811105C010922201109224018C
S11307C00895813029F48093220110922401089520
S11307D082E08093220181E08093240108950F93A5
S11307E01F93CF93DF93D82F162F042F0E942C0230
S11307F0C82F882339F180E80E945202C82F811142
S113080003C00E944A021EC08D2F0E945202C82FAC
S1130810811103C00E944A0215C0812F0E94520216
S1130820C82F811103C00E944A020CC0802F0E946D
S11308305202C82F811103C00E944A0203C00E94C1
S11308404A02C1E08C2FDF91CF911F910F9108953F
S1130850CF93DF93CDB7DEB72A970FB6F894DEBFF8
S11308600FBECDBF81E00E94D1028FE39FE10197CB
S1130870F1F700C0000061E081E00E94570380E0CE
S113088091E00E9441034AE0BE016F5F7F4F809177
S11308902501909126010E943F05CE0101960E94F8
S11308A0410383E091E00E94410386E091E00E94CD
S11308B04103809128014AE0BE016F5F7F4F90E0C1
S11308C00E943F05CE0101960E94410361E082E04F
S11308D00E94570380912701811105C08CE091E0AB
S11308E00E94410304C089E091E00E944103809189
S11308F02801843628F081E191E00E94410304C07C
S113090086E191E00E9441032A960FB6F894DEBF77
S11309100FBECDBFDF91CF91089541E060EA76E844
S113092081E090E00E94D0010E94E3020E94A500B1
S11309300E94E3002FEF83EC99E021508040904027
S1130940E1F700C000000E94E30024E630E040E04C
S113095050E00E94FE0430932601209325012431A7
S113096031058CF30E946503882369F30E94A10377
S11309704091220160912301809124010E94EF03A0
S11309800E9428042FEF83ED90E321508040904093
S1130990E1F700C00000D7CFDB018F939F930E9443
S11309A01D05BF91AF91A29F800D911DA39F900D36
S11309B0B29F900D11240895A1E21A2EAA1BBB1B0D
S11309C0FD010DC0AA1FBB1FEE1FFF1FA217B30717
S11309D0E407F50720F0A21BB30BE40BF50B661F2D
S11309E0771F881F991F1A9469F7609570958095F1
S11309F090959B01AC01BD01CF010895052E97FB95
S1130A001EF400940E94150557FD07D00E94DC04D3
S1130A1007FC03D04EF40C94150550954095309581
S1130A2021953F4F4F4F5F4F089590958095709556
S1130A3061957F4F8F4F9F4F08950E943005A59F6A
S1130A40900DB49F900DA49F800D911D11240895C5
S1130A50B7FF0C941D050E941D05821B930B08957E
S1130A60A29FB001B39FC001A39F700D811D1124EB
S1130A70911DB29F700D811D1124911D0895BB27F6
S1130A804A3031F4992322F4BDE2909581959F4F29
S1130A900C944B05BB27FB015527AA27880F991FE8
S1130AA0AA1FA41710F0A41B83955051B9F7A05D99
S1130AB0AA3308F0A95DA193009779F7B111B19316
S1130AC01192CB010C946405DC01FC01672F719138
S1130AD07723E1F7329704C07C916D937083629120
S10F0AE0AE17BF07C8F30895F894FFCFC9
S1130AEC543A00432000413A004E4F204C555A20B2
S10F0AFC004D414C4F004255454E4F0048
S9030000FC
